:02000000232DAE
:08000600FA1FF213003008009C
:06000E00000000000800E4
:100014000F3083120313FC004730FD00FD0B102842
:0A002400FC0B10280000000008008B
:0E002E00213083120313FD00FD0B1B28080078
:10003C007B15FB1F28280130F300F201F101F001C0
:08004C00FA0DF20CFF30080070
:0E005400F201F101F001F801F30100300800A3
:10006200A0017208031D46287108F2007008F10011
:10007200F001A0157208031D46287108F200F10173
:10008200A01120167208031954282008F302031D38
:10009200031C58280310F21B5C28F00DF10DF20D21
:1000A200F30B4C2858280130FC002A205F2802302C
:0E00B200FC001E205F280430FC000320080024
:1000C000FB14FB1F6A28FF30F300F200F100F00080
:0800D000FA0DF20CFF300800EC
:1000D8000E3083120313FD00FD0B7028000008008A
:1000E80083120313F801F9011030FC00710DF80DAB
:1000F800F90D7408F8027508031C750FF902031846
:100108008C287408F80775080318750FF907031089
:0A011800F00DF10DFC0B7A28080031
:06012200FB15FF30080090
:1001280083160313DE1B9B28831288139D288312D2
:10013800881783165E1BA32883120813A528831229
:1001480008178316DE1AAB2883128812AD2883128B
:10015800881683165E1AB32883120812B5288312EC
:1001680008166F18B9280815BA2808118815072025
:1001780088118316DE19C32883128813C5288312B1
:10018800881783165E19CB2883120813CD2883128B
:1001980008178316DE18D32883128812D5288312ED
:1001A800881683165E18DB2883120812DD2883124E
:1001B80008166F18E1280815E22808118815072085
:0E01C80088116F1CE9280A20EA281720080079
:1001D600831203139F01C0309F0483161F179F17B6
:1001E6005908F000F00D7010F00D7010F00D701041
:1001F600700883129F041F146C201F151F1D0529EC
:10020600000001291F101E08F100F00183161E08C8
:08021600F0040030F1040800BF
:10021E00FF3083120313EC00FF30ED00FF30EE00D1
:10022E00FF309F01C0309F0483161F179F17831244
:04023E001F14080081
:10024200831203137408003A031D3C297508003A0F
:10025200031D3C297608003A031D3C297708003A21
:10026200031D3C29FF30F000FF30F1007F30F20027
:10027200FF30F300D7298312031377080319CB2920
:1002820073080319CE29720876068039FA00F2172C
:10029200F617A0017208F8007108FC007008FD0052
:1002A2007408FD027508031C750FFC027608031C16
:1002B200760FF802F801FC01FD01031C6729031007
:1002C200F20CF10CF00CF80C0130A0007708F302EC
:1002D200031C71297E302007F3070318D1297629E0
:1002E2007E302007F307031CD4291830FA07FD0DCE
:1002F200FC0DF80DF00DF10DF20DA00D7408F002D9
:100302007508031C750FF1027608031C760FF202C2
:10031200760DA004201C8F297D149A297408F007F9
:1003220075080318750FF10776080318760AF207A5
:100332007D10FA031F307A05031D78297B1B7D1C73
:10034200C1290310F00DF10DF20DA00D7408F00299
:100352007508031C750FF1027608031C760FF20272
:10036200760D20040139FD070318FC0A0319F80A67
:10037200031DC129F80CFC0CFD0CF30A0319D12949
:10038200FA1FF8137808F2007C08F1007D08F000EB
:100392000030D62901309120D62902302A20D629D0
:0E03A20004306020D62908301E20000008001C
:1003B00083120313FB017308031D770803192F2A07
:1003C00072087606FA007708F3077E30031CEC29E2
:1003D000F3020318322AEF29F302031C352A7208AC
:1003E000F8007108FC007008FD00F817F6170310FC
:1003F000F201F101F0011830A0007D1C092A7408F7
:10040000F00775080318750FF10776080318760FC3
:10041000F207F20CF10CF00CF80CFC0CFD0C0310C4
:10042000A00BFD29F21B192AF80DF00DF10DF20DAC
:10043000F3037B1B701C2B2AF81F2B2AF00A0319CD
:10044000F10A0319F20A031D2B2AF20CF10CF00C2D
:10045000F30A0319322AFA1FF2130030372A013047
:100460002A20372A02306020372A04301E2000005C
:02047000080082
:0E047200831203136B088A006A0882000800D8
:10048000831203136F1083165908DE0094206F1433
:02049000080062
:1004920083160313DC0105305C020318572A5C083B
:1004A2005B07840020308000DC0A4C2A5C085B0772
:1004B20084008001DC035C085B07DD000A30F40085
:1004C200F5015908F0005A08F10074207808F0008C
:1004D2007908F1003030F00783165D088400700857
:1004E20080000A30F400F5015908F0005A08F100C2
:1004F200742070088316D9007108DA000030710682
:10050200031D852A00307006031D882A8A2ADC030F
:040512005C2A080057
:1005160083160313D901DB01DC011030DD00043042
:100526005C020318B92AF0308312860083165D092F
:100536008600072007200F3083120605F00070089A
:100546008316DA0070080319B32A5B08D9005A0823
:100556000319B12ADA0CDA13D90AAA2A0430DC0004
:10056600DD0D5D100430DB07DC0A922A5908F00025
:0205760008007B
:10057800831203137008F8007108F000F101F2010A
:10058800F301FB01FC019630F300FA017008F10059
:0C0598007808F000F801F20131200800A2
:0A05A400FF308316031386000800E1
:1005AE00D2228B227008D000D1010D2B0730D00043
:1005BE000030D1005D2B0830D0000030D1005D2B13
:1005CE000930D0000030D1005D2B0430D000003057
:1005DE00D1005D2B0530D0000030D1005D2B0630F0
:1005EE00D0000030D1005D2B0130D0000030D100A2
:1005FE005D2B0230D0000030D1005D2B0330D000D7
:10060E000030D1005D2BD001D1015D2B00305106A1
:10061E00031D132B013050060319DD2A003051063D
:10062E00031D1B2B023050060319E22A003051061F
:10063E00031D232B033050060319E72A0030510601
:10064E00031D2B2B053050060319EC2A00305106E2
:10065E00031D332B063050060319F12A00305106C4
:10066E00031D3B2B073050060319F62A00305106A6
:10067E00031D432B093050060319FB2A0030510687
:10068E00031D4B2B0A3050060319002B0030510668
:10069E00031D532B0B3050060319052B003051064A
:1006AE00031D5B2B0E30500603190A2B003051062A
:1006BE00031D632B003050060319D82A5008F00092
:0606CE005108F1000800D4
:1006D4007C2B803083160313D0008F2BC030D000C6
:1006E4008F2B9430D0008F2BD430D0008F2B8030C0
:1006F400D0008F2B831603135008013A03196B2B78
:100704005008023A0319702B5008033A0319732B4B
:100714005008043A0319762B792B5103F000500842
:10072400F0077008D0007008DE0094206F10831664
:10073400D30153085207840000080319AA2B530855
:10074400520784000008D90040228316D30A9B2B49
:0607540083126F1408007F
:10075A0083160313D501D6015008D7005108D800D3
:10076A0080305106F00080307002031DBE2B00302D
:10077A0050020318CC2B0130D5000030D6005008A7
:10078A00003CD7005108031C013ED801D802570883
:10079A00D9005808DA005208DB0049220630D30093
:1007AA000030D4005408003C031DDD2B5308003CE4
:1007BA000318F82B53085207F20001305302F000D5
:1007CA000030031C013E5402F100700852078400F5
:1007DA000008F00072088400700880000130D3021B
:1007EA00031CD403D72B52088400203080005508FC
:1007FA0056040319162CD301D40153085207840056
:10080A000008203A031D0D2CD30A0319D40A022C1E
:10081A000130D302031CD4035308520784002D303D
:04082A008000080042
:10082E0083160313D101D2015008F2005008F300D1
:10083E00720884000008203A031D2A2C5108520425
:10084E00031D2A2C372C0130D1000030D200720843
:10085E0084000008F0007308840070088000F30A1A
:10086E007208F100F20A710884000008003A031DB4
:08087E001F2C5008F0000800D7
:10088600831203137008F8007108F000F101F201F9
:10089600F301FB01FC019630F300FA01F01F592C1D
:1008A600F809F009F80A0319F00AFA177008F100B6
:0C08B6007808F000F801F2013120080081
:1008C200831603138811081108128812081388135B
:1008D20083128811081188130813881208120A203B
:1008E2000A200A20881608168815072088110A206F
:1008F2008815072088110A208815072088110A20E8
:1009020008128815072088110A20881507208811E7
:10091200881288178815072088110A20881308165C
:1009220088150720881108128815072088110A20C7
:1009320088150720881108168815072088110A20B3
:1009420008128815072088118817081788160816B4
:0C0952008815072088110A206F14080087
:10095E000F218316D901EB20BC220030F4000030A9
:10096E00F5002030F6008130F700D8210030F40079
:10097E000030F5000030F6008930F7002121080024
:10098E0083120313FA017308031D7A147708031DEB
:10099E00FA147A080319132D033A0319DE2C7A1868
:1009AE00DB2CF61F112D0F2DF21F0F2D112D72089E
:1009BE008039FA00F21376088039F6137A06031995
:1009CE00EC2C7A0803190F2D112D770873020319D9
:1009DE00F32C031C072D0B2D760872020319FA2C2B
:1009EE00031C072D0B2D750871020319012D031C15
:1009FE00072D0B2D740870020319132D03180B2DE0
:100A0E00FA080319112D0F2DFA0803190F2D112DA8
:100A1E00031408000310080003140315080008004F
:100A2E0039228A110A128000840AEA0A0319EB0A93
:080A3E00F003031D172D080051
:100A4600A6268316031307108312071461240F21A9
:100A56000C308316DE00942001308316DE009420CD
:100A6600AF2470088316BE007108BF007208C0006C
:100A76007308C1000130D0000130D1002130D2000E
:100A86006A23D722D7227008D0007108D100C63059
:100A9600D200AD23C630D00017240230D000083073
:100AA600D100C630D2006A230230FB000430FC00BD
:100AB600BA30FD00FD0B5D2DFC0B5D2DFB0B5D2D96
:100AC6000000D7227008C2007108C3000130DE00A2
:100AD600942001308316D0000130D100AD30D20011
:100AE6006A23D722D7227008D0007108D100C630F9
:100AF600D200AD23C630D00017240230D000083013
:100B0600D100C630D2006A230230FB000430FC005C
:100B1600BA30FD00FD0B8D2DFC0B8D2DFB0B8D2DA5
:100B26000000D7227008C4007108C5004208F00012
:100B36004308F10043247008F4007108F5007208B8
:100B4600F6007308F70083163E08F0003F08F10030
:100B56004008F2004108F300C7240130031C0030AE
:100B6600F00070080319D22D071001308316DE003D
:100B7600942001308316D0000130D100A030D2007D
:100B86006A231530FB004B30FC00BE30FD00FD0B28
:100B9600CA2DFC0BCA2DFB0BCA2D0000382E83165E
:100BA6004408F0004508F100432483163E08F4008B
:100BB6003F08F5004008F6004108F700C724013059
:100BC600031C0030F00070080319052E07100130D1
:100BD6008316DE00942001308316D0000130D10048
:100BE6004430D2006A230B30FB002630FC005D3017
:100BF600FD00FD0BFC2DFC0BFC2DFB0BFC2D000062
:100C06000000382E01308316DE0094200130831652
:100C1600D0000130D1003230D2006A230B30FB0005
:100C26002630FC005D30FD00FD0B172EFC0B172E49
:100C3600FB0B172E0000000001308316DE00942007
:100C460001308316D0000130D1005230D2006A2321
:100C56001530FB004B30FC00BE30FD00FD0B312E85
:0E0C6600FC0B312EFB0B312E0000332D392EEE
:100D4C0021308400493083120313F0003F30EA0055
:100D5C000630EB001725A03084001E3083120313DD
:0E0D6C00F0008830EA000630EB001725080082
:100C7E0070346C34653461347334653420346534C7
:100C8E006E3474346534723420346D346134783497
:020C9E00003420
:100CA0006E346F3472346D3461346C3420346F348C
:100CB0007034653472346134743469346F346E3432
:040CC00020340034A8
:100CC40075346E34643465347234203476346F345D
:0C0CD4006C3474346134673465340034CF
:100CE0006334683461346E3467346534203474346A
:100CF00068346534203470346F34743469346E343D
:100D000074346F346D346534743465347234003443
:100D10006F34763465347234203476346F346C3406
:0A0D20007434613467346534003424
:100D2A0070346C346534613473346534203465341A
:100D3A006E3474346534723420346D3469346E34EC
:020D4A00003473
:02400E004A2F37
:00000001FF
